{
  "_format": "hh-sol-artifact-1",
  "contractName": "CertProposal",
  "sourceName": "contracts/CertProposal.sol",
  "abi": [
    {
      "inputs": [
        {
          "internalType": "string",
          "name": "_bronzeTokenURI",
          "type": "string"
        },
        {
          "internalType": "string",
          "name": "_silverTokenURI",
          "type": "string"
        },
        {
          "internalType": "string",
          "name": "_goldTokenURI",
          "type": "string"
        },
        {
          "internalType": "address",
          "name": "_owner",
          "type": "address"
        }
      ],
      "stateMutability": "payable",
      "type": "constructor"
    },
    {
      "anonymous": false,
      "inputs": [
        {
          "indexed": true,
          "internalType": "address",
          "name": "owner",
          "type": "address"
        },
        {
          "indexed": true,
          "internalType": "address",
          "name": "approved",
          "type": "address"
        },
        {
          "indexed": true,
          "internalType": "uint256",
          "name": "tokenId",
          "type": "uint256"
        }
      ],
      "name": "Approval",
      "type": "event"
    },
    {
      "anonymous": false,
      "inputs": [
        {
          "indexed": true,
          "internalType": "address",
          "name": "owner",
          "type": "address"
        },
        {
          "indexed": true,
          "internalType": "address",
          "name": "operator",
          "type": "address"
        },
        {
          "indexed": false,
          "internalType": "bool",
          "name": "approved",
          "type": "bool"
        }
      ],
      "name": "ApprovalForAll",
      "type": "event"
    },
    {
      "anonymous": false,
      "inputs": [
        {
          "indexed": true,
          "internalType": "address",
          "name": "from",
          "type": "address"
        },
        {
          "indexed": true,
          "internalType": "address",
          "name": "to",
          "type": "address"
        },
        {
          "indexed": true,
          "internalType": "uint256",
          "name": "tokenId",
          "type": "uint256"
        }
      ],
      "name": "Transfer",
      "type": "event"
    },
    {
      "inputs": [
        {
          "internalType": "address",
          "name": "to",
          "type": "address"
        },
        {
          "internalType": "uint256",
          "name": "tokenId",
          "type": "uint256"
        }
      ],
      "name": "approve",
      "outputs": [],
      "stateMutability": "nonpayable",
      "type": "function"
    },
    {
      "inputs": [
        {
          "internalType": "address",
          "name": "owner",
          "type": "address"
        }
      ],
      "name": "balanceOf",
      "outputs": [
        {
          "internalType": "uint256",
          "name": "",
          "type": "uint256"
        }
      ],
      "stateMutability": "view",
      "type": "function"
    },
    {
      "inputs": [
        {
          "internalType": "address",
          "name": "",
          "type": "address"
        }
      ],
      "name": "donations",
      "outputs": [
        {
          "internalType": "uint256",
          "name": "",
          "type": "uint256"
        }
      ],
      "stateMutability": "view",
      "type": "function"
    },
    {
      "inputs": [
        {
          "internalType": "uint256",
          "name": "",
          "type": "uint256"
        }
      ],
      "name": "donors",
      "outputs": [
        {
          "internalType": "address",
          "name": "",
          "type": "address"
        }
      ],
      "stateMutability": "view",
      "type": "function"
    },
    {
      "inputs": [
        {
          "internalType": "uint256",
          "name": "tokenId",
          "type": "uint256"
        }
      ],
      "name": "getApproved",
      "outputs": [
        {
          "internalType": "address",
          "name": "",
          "type": "address"
        }
      ],
      "stateMutability": "view",
      "type": "function"
    },
    {
      "inputs": [],
      "name": "getProposal",
      "outputs": [
        {
          "internalType": "string",
          "name": "",
          "type": "string"
        },
        {
          "internalType": "string",
          "name": "",
          "type": "string"
        },
        {
          "internalType": "string",
          "name": "",
          "type": "string"
        },
        {
          "internalType": "address",
          "name": "",
          "type": "address"
        }
      ],
      "stateMutability": "view",
      "type": "function"
    },
    {
      "inputs": [
        {
          "internalType": "address",
          "name": "owner",
          "type": "address"
        },
        {
          "internalType": "address",
          "name": "operator",
          "type": "address"
        }
      ],
      "name": "isApprovedForAll",
      "outputs": [
        {
          "internalType": "bool",
          "name": "",
          "type": "bool"
        }
      ],
      "stateMutability": "view",
      "type": "function"
    },
    {
      "inputs": [],
      "name": "name",
      "outputs": [
        {
          "internalType": "string",
          "name": "",
          "type": "string"
        }
      ],
      "stateMutability": "view",
      "type": "function"
    },
    {
      "inputs": [
        {
          "internalType": "uint256",
          "name": "tokenId",
          "type": "uint256"
        }
      ],
      "name": "ownerOf",
      "outputs": [
        {
          "internalType": "address",
          "name": "",
          "type": "address"
        }
      ],
      "stateMutability": "view",
      "type": "function"
    },
    {
      "inputs": [],
      "name": "receiveMoney",
      "outputs": [],
      "stateMutability": "payable",
      "type": "function"
    },
    {
      "inputs": [
        {
          "internalType": "address",
          "name": "from",
          "type": "address"
        },
        {
          "internalType": "address",
          "name": "to",
          "type": "address"
        },
        {
          "internalType": "uint256",
          "name": "tokenId",
          "type": "uint256"
        }
      ],
      "name": "safeTransferFrom",
      "outputs": [],
      "stateMutability": "nonpayable",
      "type": "function"
    },
    {
      "inputs": [
        {
          "internalType": "address",
          "name": "from",
          "type": "address"
        },
        {
          "internalType": "address",
          "name": "to",
          "type": "address"
        },
        {
          "internalType": "uint256",
          "name": "tokenId",
          "type": "uint256"
        },
        {
          "internalType": "bytes",
          "name": "_data",
          "type": "bytes"
        }
      ],
      "name": "safeTransferFrom",
      "outputs": [],
      "stateMutability": "nonpayable",
      "type": "function"
    },
    {
      "inputs": [
        {
          "internalType": "address",
          "name": "operator",
          "type": "address"
        },
        {
          "internalType": "bool",
          "name": "approved",
          "type": "bool"
        }
      ],
      "name": "setApprovalForAll",
      "outputs": [],
      "stateMutability": "nonpayable",
      "type": "function"
    },
    {
      "inputs": [
        {
          "internalType": "bytes4",
          "name": "interfaceId",
          "type": "bytes4"
        }
      ],
      "name": "supportsInterface",
      "outputs": [
        {
          "internalType": "bool",
          "name": "",
          "type": "bool"
        }
      ],
      "stateMutability": "view",
      "type": "function"
    },
    {
      "inputs": [],
      "name": "symbol",
      "outputs": [
        {
          "internalType": "string",
          "name": "",
          "type": "string"
        }
      ],
      "stateMutability": "view",
      "type": "function"
    },
    {
      "inputs": [
        {
          "internalType": "uint256",
          "name": "tokenId",
          "type": "uint256"
        }
      ],
      "name": "tokenURI",
      "outputs": [
        {
          "internalType": "string",
          "name": "",
          "type": "string"
        }
      ],
      "stateMutability": "view",
      "type": "function"
    },
    {
      "inputs": [
        {
          "internalType": "address",
          "name": "from",
          "type": "address"
        },
        {
          "internalType": "address",
          "name": "to",
          "type": "address"
        },
        {
          "internalType": "uint256",
          "name": "tokenId",
          "type": "uint256"
        }
      ],
      "name": "transferFrom",
      "outputs": [],
      "stateMutability": "nonpayable",
      "type": "function"
    },
    {
      "inputs": [],
      "name": "withdraw",
      "outputs": [],
      "stateMutability": "nonpayable",
      "type": "function"
    },
    {
      "stateMutability": "payable",
      "type": "receive"
    }
  ],
  "bytecode": "0x608060405260405162002fe038038062002fe08339818101604052810190620000299190620002a4565b6040518060400160405280600481526020017f43455254000000000000000000000000000000000000000000000000000000008152506040518060400160405280600381526020017f43525400000000000000000000000000000000000000000000000000000000008152508160009080519060200190620000ad9291906200016b565b508060019080519060200190620000c69291906200016b565b5050508360086001019080519060200190620000e49291906200016b565b508260086002019080519060200190620001009291906200016b565b5081600860030190805190602001906200011c9291906200016b565b5080600860000160006101000a81548173ffffffffffffffffffffffffffffffffffffffff021916908373ffffffffffffffffffffffffffffffffffffffff1602179055505050505062000519565b828054620001799062000424565b90600052602060002090601f0160209004810192826200019d5760008555620001e9565b82601f10620001b857805160ff1916838001178555620001e9565b82800160010185558215620001e9579182015b82811115620001e8578251825591602001919060010190620001cb565b5b509050620001f89190620001fc565b5090565b5b8082111562000217576000816000905550600101620001fd565b5090565b6000620002326200022c8462000384565b6200035b565b9050828152602081018484840111156200024b57600080fd5b62000258848285620003ee565b509392505050565b6000815190506200027181620004ff565b92915050565b600082601f8301126200028957600080fd5b81516200029b8482602086016200021b565b91505092915050565b60008060008060808587031215620002bb57600080fd5b600085015167ffffffffffffffff811115620002d657600080fd5b620002e48782880162000277565b945050602085015167ffffffffffffffff8111156200030257600080fd5b620003108782880162000277565b935050604085015167ffffffffffffffff8111156200032e57600080fd5b6200033c8782880162000277565b92505060606200034f8782880162000260565b91505092959194509250565b6000620003676200037a565b90506200037582826200045a565b919050565b6000604051905090565b600067ffffffffffffffff821115620003a257620003a1620004bf565b5b620003ad82620004ee565b9050602081019050919050565b6000620003c782620003ce565b9050919050565b600073ffffffffffffffffffffffffffffffffffffffff82169050919050565b60005b838110156200040e578082015181840152602081019050620003f1565b838111156200041e576000848401525b50505050565b600060028204905060018216806200043d57607f821691505b6020821081141562000454576200045362000490565b5b50919050565b6200046582620004ee565b810181811067ffffffffffffffff82111715620004875762000486620004bf565b5b80604052505050565b7f4e487b7100000000000000000000000000000000000000000000000000000000600052602260045260246000fd5b7f4e487b7100000000000000000000000000000000000000000000000000000000600052604160045260246000fd5b6000601f19601f8301169050919050565b6200050a81620003ba565b81146200051657600080fd5b50565b612ab780620005296000396000f3fe60806040526004361061010d5760003560e01c80636d26ec1811610095578063b88d4fde11610064578063b88d4fde1461036d578063b9e2bea014610396578063c87b56dd146103c4578063cc6cb19a14610401578063e985e9c51461043e5761011c565b80636d26ec18146102d257806370a08231146102dc57806395d89b4114610319578063a22cb465146103445761011c565b806323b872dd116100dc57806323b872dd146101ef5780633ccfd60b1461021857806342842e0e1461022f5780634abfa163146102585780636352211e146102955761011c565b806301ffc9a71461012157806306fdde031461015e578063081812fc14610189578063095ea7b3146101c65761011c565b3661011c5761011a61047b565b005b600080fd5b34801561012d57600080fd5b5061014860048036038101906101439190611c85565b610524565b604051610155919061205a565b60405180910390f35b34801561016a57600080fd5b50610173610606565b6040516101809190612075565b60405180910390f35b34801561019557600080fd5b506101b060048036038101906101ab9190611cd7565b610698565b6040516101bd9190611ff3565b60405180910390f35b3480156101d257600080fd5b506101ed60048036038101906101e89190611c49565b61071d565b005b3480156101fb57600080fd5b5061021660048036038101906102119190611b43565b610835565b005b34801561022457600080fd5b5061022d610895565b005b34801561023b57600080fd5b5061025660048036038101906102519190611b43565b6109cc565b005b34801561026457600080fd5b5061027f600480360381019061027a9190611cd7565b6109ec565b60405161028c9190611ff3565b60405180910390f35b3480156102a157600080fd5b506102bc60048036038101906102b79190611cd7565b610a2b565b6040516102c99190611ff3565b60405180910390f35b6102da61047b565b005b3480156102e857600080fd5b5061030360048036038101906102fe9190611ade565b610add565b6040516103109190612291565b60405180910390f35b34801561032557600080fd5b5061032e610b95565b60405161033b9190612075565b60405180910390f35b34801561035057600080fd5b5061036b60048036038101906103669190611c0d565b610c27565b005b34801561037957600080fd5b50610394600480360381019061038f9190611b92565b610c3d565b005b3480156103a257600080fd5b506103ab610c9f565b6040516103bb9493929190612097565b60405180910390f35b3480156103d057600080fd5b506103eb60048036038101906103e69190611cd7565b610e8d565b6040516103f89190612075565b60405180910390f35b34801561040d57600080fd5b5061042860048036038101906104239190611ade565b610f34565b6040516104359190612291565b60405180910390f35b34801561044a57600080fd5b5061046560048036038101906104609190611b07565b610f4c565b604051610472919061205a565b60405180910390f35b34600660003373ffffffffffffffffffffffffffffffffffffffff1673ffffffffffffffffffffffffffffffffffffffff168152602001908152602001600020819055506007339080600181540180825580915050600190039060005260206000200160009091909190916101000a81548173ffffffffffffffffffffffffffffffffffffffff021916908373ffffffffffffffffffffffffffffffffffffffff160217905550565b60007f80ac58cd000000000000000000000000000000000000000000000000000000007bffffffffffffffffffffffffffffffffffffffffffffffffffffffff1916827bffffffffffffffffffffffffffffffffffffffffffffffffffffffff191614806105ef57507f5b5e139f000000000000000000000000000000000000000000000000000000007bffffffffffffffffffffffffffffffffffffffffffffffffffffffff1916827bffffffffffffffffffffffffffffffffffffffffffffffffffffffff1916145b806105ff57506105fe82610fe0565b5b9050919050565b606060008054610615906124c1565b80601f0160208091040260200160405190810160405280929190818152602001828054610641906124c1565b801561068e5780601f106106635761010080835404028352916020019161068e565b820191906000526020600020905b81548152906001019060200180831161067157829003601f168201915b5050505050905090565b60006106a38261104a565b6106e2576040517f08c379a00000000000000000000000000000000000000000000000000000000081526004016106d990612211565b60405180910390fd5b6004600083815260200190815260200160002060009054906101000a900473ffffffffffffffffffffffffffffffffffffffff169050919050565b600061072882610a2b565b90508073ffffffffffffffffffffffffffffffffffffffff168373ffffffffffffffffffffffffffffffffffffffff161415610799576040517f08c379a000000000000000000000000000000000000000000000000000000000815260040161079090612251565b60405180910390fd5b8073ffffffffffffffffffffffffffffffffffffffff166107b86110b6565b73ffffffffffffffffffffffffffffffffffffffff1614806107e757506107e6816107e16110b6565b610f4c565b5b610826576040517f08c379a000000000000000000000000000000000000000000000000000000000815260040161081d906121b1565b60405180910390fd5b61083083836110be565b505050565b6108466108406110b6565b82611177565b610885576040517f08c379a000000000000000000000000000000000000000000000000000000000815260040161087c90612271565b60405180910390fd5b610890838383611255565b505050565b600860000160009054906101000a900473ffffffffffffffffffffffffffffffffffffffff1673ffffffffffffffffffffffffffffffffffffffff163373ffffffffffffffffffffffffffffffffffffffff16146108f257600080fd5b60004790506000600860000160009054906101000a900473ffffffffffffffffffffffffffffffffffffffff1673ffffffffffffffffffffffffffffffffffffffff168260405161094290611fde565b60006040518083038185875af1925050503d806000811461097f576040519150601f19603f3d011682016040523d82523d6000602084013e610984565b606091505b50509050806109c8576040517f08c379a00000000000000000000000000000000000000000000000000000000081526004016109bf90612131565b60405180910390fd5b5050565b6109e783838360405180602001604052806000815250610c3d565b505050565b600781815481106109fc57600080fd5b906000526020600020016000915054906101000a900473ffffffffffffffffffffffffffffffffffffffff1681565b6000806002600084815260200190815260200160002060009054906101000a900473ffffffffffffffffffffffffffffffffffffffff169050600073ffffffffffffffffffffffffffffffffffffffff168173ffffffffffffffffffffffffffffffffffffffff161415610ad4576040517f08c379a0000000000000000000000000000000000000000000000000000000008152600401610acb906121f1565b60405180910390fd5b80915050919050565b60008073ffffffffffffffffffffffffffffffffffffffff168273ffffffffffffffffffffffffffffffffffffffff161415610b4e576040517f08c379a0000000000000000000000000000000000000000000000000000000008152600401610b45906121d1565b60405180910390fd5b600360008373ffffffffffffffffffffffffffffffffffffffff1673ffffffffffffffffffffffffffffffffffffffff168152602001908152602001600020549050919050565b606060018054610ba4906124c1565b80601f0160208091040260200160405190810160405280929190818152602001828054610bd0906124c1565b8015610c1d5780601f10610bf257610100808354040283529160200191610c1d565b820191906000526020600020905b815481529060010190602001808311610c0057829003601f168201915b5050505050905090565b610c39610c326110b6565b83836114bc565b5050565b610c4e610c486110b6565b83611177565b610c8d576040517f08c379a0000000000000000000000000000000000000000000000000000000008152600401610c8490612271565b60405180910390fd5b610c9984848484611629565b50505050565b60608060606000600860010160086002016008600301600860000160009054906101000a900473ffffffffffffffffffffffffffffffffffffffff16838054610ce7906124c1565b80601f0160208091040260200160405190810160405280929190818152602001828054610d13906124c1565b8015610d605780601f10610d3557610100808354040283529160200191610d60565b820191906000526020600020905b815481529060010190602001808311610d4357829003601f168201915b50505050509350828054610d73906124c1565b80601f0160208091040260200160405190810160405280929190818152602001828054610d9f906124c1565b8015610dec5780601f10610dc157610100808354040283529160200191610dec565b820191906000526020600020905b815481529060010190602001808311610dcf57829003601f168201915b50505050509250818054610dff906124c1565b80601f0160208091040260200160405190810160405280929190818152602001828054610e2b906124c1565b8015610e785780601f10610e4d57610100808354040283529160200191610e78565b820191906000526020600020905b815481529060010190602001808311610e5b57829003601f168201915b50505050509150935093509350935090919293565b6060610e988261104a565b610ed7576040517f08c379a0000000000000000000000000000000000000000000000000000000008152600401610ece90612231565b60405180910390fd5b6000610ee1611685565b90506000815111610f015760405180602001604052806000815250610f2c565b80610f0b8461169c565b604051602001610f1c929190611fba565b6040516020818303038152906040525b915050919050565b60066020528060005260406000206000915090505481565b6000600560008473ffffffffffffffffffffffffffffffffffffffff1673ffffffffffffffffffffffffffffffffffffffff16815260200190815260200160002060008373ffffffffffffffffffffffffffffffffffffffff1673ffffffffffffffffffffffffffffffffffffffff16815260200190815260200160002060009054906101000a900460ff16905092915050565b60007f01ffc9a7000000000000000000000000000000000000000000000000000000007bffffffffffffffffffffffffffffffffffffffffffffffffffffffff1916827bffffffffffffffffffffffffffffffffffffffffffffffffffffffff1916149050919050565b60008073ffffffffffffffffffffffffffffffffffffffff166002600084815260200190815260200160002060009054906101000a900473ffffffffffffffffffffffffffffffffffffffff1673ffffffffffffffffffffffffffffffffffffffff1614159050919050565b600033905090565b816004600083815260200190815260200160002060006101000a81548173ffffffffffffffffffffffffffffffffffffffff021916908373ffffffffffffffffffffffffffffffffffffffff160217905550808273ffffffffffffffffffffffffffffffffffffffff1661113183610a2b565b73ffffffffffffffffffffffffffffffffffffffff167f8c5be1e5ebec7d5bd14f71427d1e84f3dd0314c0f7b2291e5b200ac8c7c3b92560405160405180910390a45050565b60006111828261104a565b6111c1576040517f08c379a00000000000000000000000000000000000000000000000000000000081526004016111b890612191565b60405180910390fd5b60006111cc83610a2b565b90508073ffffffffffffffffffffffffffffffffffffffff168473ffffffffffffffffffffffffffffffffffffffff16148061123b57508373ffffffffffffffffffffffffffffffffffffffff1661122384610698565b73ffffffffffffffffffffffffffffffffffffffff16145b8061124c575061124b8185610f4c565b5b91505092915050565b8273ffffffffffffffffffffffffffffffffffffffff1661127582610a2b565b73ffffffffffffffffffffffffffffffffffffffff16146112cb576040517f08c379a00000000000000000000000000000000000000000000000000000000081526004016112c290612111565b60405180910390fd5b600073ffffffffffffffffffffffffffffffffffffffff168273ffffffffffffffffffffffffffffffffffffffff16141561133b576040517f08c379a000000000000000000000000000000000000000000000000000000000815260040161133290612151565b60405180910390fd5b611346838383611849565b6113516000826110be565b6001600360008573ffffffffffffffffffffffffffffffffffffffff1673ffffffffffffffffffffffffffffffffffffffff16815260200190815260200160002060008282546113a191906123d7565b925050819055506001600360008473ffffffffffffffffffffffffffffffffffffffff1673ffffffffffffffffffffffffffffffffffffffff16815260200190815260200160002060008282546113f89190612350565b92505081905550816002600083815260200190815260200160002060006101000a81548173ffffffffffffffffffffffffffffffffffffffff021916908373ffffffffffffffffffffffffffffffffffffffff160217905550808273ffffffffffffffffffffffffffffffffffffffff168473ffffffffffffffffffffffffffffffffffffffff167fddf252ad1be2c89b69c2b068fc378daa952ba7f163c4a11628f55a4df523b3ef60405160405180910390a46114b783838361184e565b505050565b8173ffffffffffffffffffffffffffffffffffffffff168373ffffffffffffffffffffffffffffffffffffffff16141561152b576040517f08c379a000000000000000000000000000000000000000000000000000000000815260040161152290612171565b60405180910390fd5b80600560008573ffffffffffffffffffffffffffffffffffffffff1673ffffffffffffffffffffffffffffffffffffffff16815260200190815260200160002060008473ffffffffffffffffffffffffffffffffffffffff1673ffffffffffffffffffffffffffffffffffffffff16815260200190815260200160002060006101000a81548160ff0219169083151502179055508173ffffffffffffffffffffffffffffffffffffffff168373ffffffffffffffffffffffffffffffffffffffff167f17307eab39ab6107e8899845ad3d59bd9653f200f220920489ca2b5937696c318360405161161c919061205a565b60405180910390a3505050565b611634848484611255565b61164084848484611853565b61167f576040517f08c379a0000000000000000000000000000000000000000000000000000000008152600401611676906120f1565b60405180910390fd5b50505050565b606060405180602001604052806000815250905090565b606060008214156116e4576040518060400160405280600181526020017f30000000000000000000000000000000000000000000000000000000000000008152509050611844565b600082905060005b600082146117165780806116ff90612524565b915050600a8261170f91906123a6565b91506116ec565b60008167ffffffffffffffff811115611758577f4e487b7100000000000000000000000000000000000000000000000000000000600052604160045260246000fd5b6040519080825280601f01601f19166020018201604052801561178a5781602001600182028036833780820191505090505b5090505b6000851461183d576001826117a391906123d7565b9150600a856117b2919061256d565b60306117be9190612350565b60f81b8183815181106117fa577f4e487b7100000000000000000000000000000000000000000000000000000000600052603260045260246000fd5b60200101907effffffffffffffffffffffffffffffffffffffffffffffffffffffffffffff1916908160001a905350600a8561183691906123a6565b945061178e565b8093505050505b919050565b505050565b505050565b60006118748473ffffffffffffffffffffffffffffffffffffffff166119ea565b156119dd578373ffffffffffffffffffffffffffffffffffffffff1663150b7a0261189d6110b6565b8786866040518563ffffffff1660e01b81526004016118bf949392919061200e565b602060405180830381600087803b1580156118d957600080fd5b505af192505050801561190a57506040513d601f19601f820116820180604052508101906119079190611cae565b60015b61198d573d806000811461193a576040519150601f19603f3d011682016040523d82523d6000602084013e61193f565b606091505b50600081511415611985576040517f08c379a000000000000000000000000000000000000000000000000000000000815260040161197c906120f1565b60405180910390fd5b805181602001fd5b63150b7a0260e01b7bffffffffffffffffffffffffffffffffffffffffffffffffffffffff1916817bffffffffffffffffffffffffffffffffffffffffffffffffffffffff1916149150506119e2565b600190505b949350505050565b6000808273ffffffffffffffffffffffffffffffffffffffff163b119050919050565b6000611a20611a1b846122d1565b6122ac565b905082815260208101848484011115611a3857600080fd5b611a4384828561247f565b509392505050565b600081359050611a5a81612a25565b92915050565b600081359050611a6f81612a3c565b92915050565b600081359050611a8481612a53565b92915050565b600081519050611a9981612a53565b92915050565b600082601f830112611ab057600080fd5b8135611ac0848260208601611a0d565b91505092915050565b600081359050611ad881612a6a565b92915050565b600060208284031215611af057600080fd5b6000611afe84828501611a4b565b91505092915050565b60008060408385031215611b1a57600080fd5b6000611b2885828601611a4b565b9250506020611b3985828601611a4b565b9150509250929050565b600080600060608486031215611b5857600080fd5b6000611b6686828701611a4b565b9350506020611b7786828701611a4b565b9250506040611b8886828701611ac9565b9150509250925092565b60008060008060808587031215611ba857600080fd5b6000611bb687828801611a4b565b9450506020611bc787828801611a4b565b9350506040611bd887828801611ac9565b925050606085013567ffffffffffffffff811115611bf557600080fd5b611c0187828801611a9f565b91505092959194509250565b60008060408385031215611c2057600080fd5b6000611c2e85828601611a4b565b9250506020611c3f85828601611a60565b9150509250929050565b60008060408385031215611c5c57600080fd5b6000611c6a85828601611a4b565b9250506020611c7b85828601611ac9565b9150509250929050565b600060208284031215611c9757600080fd5b6000611ca584828501611a75565b91505092915050565b600060208284031215611cc057600080fd5b6000611cce84828501611a8a565b91505092915050565b600060208284031215611ce957600080fd5b6000611cf784828501611ac9565b91505092915050565b611d098161240b565b82525050565b611d188161241d565b82525050565b6000611d2982612302565b611d338185612318565b9350611d4381856020860161248e565b611d4c8161265a565b840191505092915050565b6000611d628261230d565b611d6c8185612334565b9350611d7c81856020860161248e565b611d858161265a565b840191505092915050565b6000611d9b8261230d565b611da58185612345565b9350611db581856020860161248e565b80840191505092915050565b6000611dce603283612334565b9150611dd98261266b565b604082019050919050565b6000611df1602583612334565b9150611dfc826126ba565b604082019050919050565b6000611e14601483612334565b9150611e1f82612709565b602082019050919050565b6000611e37602483612334565b9150611e4282612732565b604082019050919050565b6000611e5a601983612334565b9150611e6582612781565b602082019050919050565b6000611e7d602c83612334565b9150611e88826127aa565b604082019050919050565b6000611ea0603883612334565b9150611eab826127f9565b604082019050919050565b6000611ec3602a83612334565b9150611ece82612848565b604082019050919050565b6000611ee6602983612334565b9150611ef182612897565b604082019050919050565b6000611f09602c83612334565b9150611f14826128e6565b604082019050919050565b6000611f2c602f83612334565b9150611f3782612935565b604082019050919050565b6000611f4f602183612334565b9150611f5a82612984565b604082019050919050565b6000611f72600083612329565b9150611f7d826129d3565b600082019050919050565b6000611f95603183612334565b9150611fa0826129d6565b604082019050919050565b611fb481612475565b82525050565b6000611fc68285611d90565b9150611fd28284611d90565b91508190509392505050565b6000611fe982611f65565b9150819050919050565b60006020820190506120086000830184611d00565b92915050565b60006080820190506120236000830187611d00565b6120306020830186611d00565b61203d6040830185611fab565b818103606083015261204f8184611d1e565b905095945050505050565b600060208201905061206f6000830184611d0f565b92915050565b6000602082019050818103600083015261208f8184611d57565b905092915050565b600060808201905081810360008301526120b18187611d57565b905081810360208301526120c58186611d57565b905081810360408301526120d98185611d57565b90506120e86060830184611d00565b95945050505050565b6000602082019050818103600083015261210a81611dc1565b9050919050565b6000602082019050818103600083015261212a81611de4565b9050919050565b6000602082019050818103600083015261214a81611e07565b9050919050565b6000602082019050818103600083015261216a81611e2a565b9050919050565b6000602082019050818103600083015261218a81611e4d565b9050919050565b600060208201905081810360008301526121aa81611e70565b9050919050565b600060208201905081810360008301526121ca81611e93565b9050919050565b600060208201905081810360008301526121ea81611eb6565b9050919050565b6000602082019050818103600083015261220a81611ed9565b9050919050565b6000602082019050818103600083015261222a81611efc565b9050919050565b6000602082019050818103600083015261224a81611f1f565b9050919050565b6000602082019050818103600083015261226a81611f42565b9050919050565b6000602082019050818103600083015261228a81611f88565b9050919050565b60006020820190506122a66000830184611fab565b92915050565b60006122b66122c7565b90506122c282826124f3565b919050565b6000604051905090565b600067ffffffffffffffff8211156122ec576122eb61262b565b5b6122f58261265a565b9050602081019050919050565b600081519050919050565b600081519050919050565b600082825260208201905092915050565b600081905092915050565b600082825260208201905092915050565b600081905092915050565b600061235b82612475565b915061236683612475565b9250827fffffffffffffffffffffffffffffffffffffffffffffffffffffffffffffffff0382111561239b5761239a61259e565b5b828201905092915050565b60006123b182612475565b91506123bc83612475565b9250826123cc576123cb6125cd565b5b828204905092915050565b60006123e282612475565b91506123ed83612475565b925082821015612400576123ff61259e565b5b828203905092915050565b600061241682612455565b9050919050565b60008115159050919050565b60007fffffffff0000000000000000000000000000000000000000000000000000000082169050919050565b600073ffffffffffffffffffffffffffffffffffffffff82169050919050565b6000819050919050565b82818337600083830152505050565b60005b838110156124ac578082015181840152602081019050612491565b838111156124bb576000848401525b50505050565b600060028204905060018216806124d957607f821691505b602082108114156124ed576124ec6125fc565b5b50919050565b6124fc8261265a565b810181811067ffffffffffffffff8211171561251b5761251a61262b565b5b80604052505050565b600061252f82612475565b91507fffffffffffffffffffffffffffffffffffffffffffffffffffffffffffffffff8214156125625761256161259e565b5b600182019050919050565b600061257882612475565b915061258383612475565b925082612593576125926125cd565b5b828206905092915050565b7f4e487b7100000000000000000000000000000000000000000000000000000000600052601160045260246000fd5b7f4e487b7100000000000000000000000000000000000000000000000000000000600052601260045260246000fd5b7f4e487b7100000000000000000000000000000000000000000000000000000000600052602260045260246000fd5b7f4e487b7100000000000000000000000000000000000000000000000000000000600052604160045260246000fd5b6000601f19601f8301169050919050565b7f4552433732313a207472616e7366657220746f206e6f6e20455243373231526560008201527f63656976657220696d706c656d656e7465720000000000000000000000000000602082015250565b7f4552433732313a207472616e736665722066726f6d20696e636f72726563742060008201527f6f776e6572000000000000000000000000000000000000000000000000000000602082015250565b7f4661696c656420746f2073656e64204574686572000000000000000000000000600082015250565b7f4552433732313a207472616e7366657220746f20746865207a65726f2061646460008201527f7265737300000000000000000000000000000000000000000000000000000000602082015250565b7f4552433732313a20617070726f766520746f2063616c6c657200000000000000600082015250565b7f4552433732313a206f70657261746f7220717565727920666f72206e6f6e657860008201527f697374656e7420746f6b656e0000000000000000000000000000000000000000602082015250565b7f4552433732313a20617070726f76652063616c6c6572206973206e6f74206f7760008201527f6e6572206e6f7220617070726f76656420666f7220616c6c0000000000000000602082015250565b7f4552433732313a2062616c616e636520717565727920666f7220746865207a6560008201527f726f206164647265737300000000000000000000000000000000000000000000602082015250565b7f4552433732313a206f776e657220717565727920666f72206e6f6e657869737460008201527f656e7420746f6b656e0000000000000000000000000000000000000000000000602082015250565b7f4552433732313a20617070726f76656420717565727920666f72206e6f6e657860008201527f697374656e7420746f6b656e0000000000000000000000000000000000000000602082015250565b7f4552433732314d657461646174613a2055524920717565727920666f72206e6f60008201527f6e6578697374656e7420746f6b656e0000000000000000000000000000000000602082015250565b7f4552433732313a20617070726f76616c20746f2063757272656e74206f776e6560008201527f7200000000000000000000000000000000000000000000000000000000000000602082015250565b50565b7f4552433732313a207472616e736665722063616c6c6572206973206e6f74206f60008201527f776e6572206e6f7220617070726f766564000000000000000000000000000000602082015250565b612a2e8161240b565b8114612a3957600080fd5b50565b612a458161241d565b8114612a5057600080fd5b50565b612a5c81612429565b8114612a6757600080fd5b50565b612a7381612475565b8114612a7e57600080fd5b5056fea26469706673582212207f2a6e2dd575b3db6324c9a10cb6c8beb6c21cd6298c18d473d078c98eaa20e964736f6c63430008040033",
  "linkReferences": {},
  "deployedLinkReferences": {}
}