{
  "_format": "hh-sol-artifact-1",
  "contractName": "CertProposal",
  "sourceName": "contracts/CertProposal.sol",
  "abi": [
    {
      "inputs": [
        {
          "internalType": "string",
          "name": "_bronzeTokenURI",
          "type": "string"
        },
        {
          "internalType": "string",
          "name": "_silverTokenURI",
          "type": "string"
        },
        {
          "internalType": "string",
          "name": "_goldTokenURI",
          "type": "string"
        },
        {
          "internalType": "address",
          "name": "_owner",
          "type": "address"
        }
      ],
      "stateMutability": "payable",
      "type": "constructor"
    },
    {
      "anonymous": false,
      "inputs": [
        {
          "indexed": true,
          "internalType": "address",
          "name": "owner",
          "type": "address"
        },
        {
          "indexed": true,
          "internalType": "address",
          "name": "approved",
          "type": "address"
        },
        {
          "indexed": true,
          "internalType": "uint256",
          "name": "tokenId",
          "type": "uint256"
        }
      ],
      "name": "Approval",
      "type": "event"
    },
    {
      "anonymous": false,
      "inputs": [
        {
          "indexed": true,
          "internalType": "address",
          "name": "owner",
          "type": "address"
        },
        {
          "indexed": true,
          "internalType": "address",
          "name": "operator",
          "type": "address"
        },
        {
          "indexed": false,
          "internalType": "bool",
          "name": "approved",
          "type": "bool"
        }
      ],
      "name": "ApprovalForAll",
      "type": "event"
    },
    {
      "anonymous": false,
      "inputs": [
        {
          "indexed": true,
          "internalType": "address",
          "name": "from",
          "type": "address"
        },
        {
          "indexed": true,
          "internalType": "address",
          "name": "to",
          "type": "address"
        },
        {
          "indexed": true,
          "internalType": "uint256",
          "name": "tokenId",
          "type": "uint256"
        }
      ],
      "name": "Transfer",
      "type": "event"
    },
    {
      "inputs": [
        {
          "internalType": "address",
          "name": "to",
          "type": "address"
        },
        {
          "internalType": "uint256",
          "name": "tokenId",
          "type": "uint256"
        }
      ],
      "name": "approve",
      "outputs": [],
      "stateMutability": "nonpayable",
      "type": "function"
    },
    {
      "inputs": [
        {
          "internalType": "address",
          "name": "owner",
          "type": "address"
        }
      ],
      "name": "balanceOf",
      "outputs": [
        {
          "internalType": "uint256",
          "name": "",
          "type": "uint256"
        }
      ],
      "stateMutability": "view",
      "type": "function"
    },
    {
      "inputs": [
        {
          "internalType": "address",
          "name": "",
          "type": "address"
        }
      ],
      "name": "donations",
      "outputs": [
        {
          "internalType": "uint256",
          "name": "",
          "type": "uint256"
        }
      ],
      "stateMutability": "view",
      "type": "function"
    },
    {
      "inputs": [
        {
          "internalType": "uint256",
          "name": "tokenId",
          "type": "uint256"
        }
      ],
      "name": "getApproved",
      "outputs": [
        {
          "internalType": "address",
          "name": "",
          "type": "address"
        }
      ],
      "stateMutability": "view",
      "type": "function"
    },
    {
      "inputs": [],
      "name": "getProposal",
      "outputs": [
        {
          "internalType": "string",
          "name": "",
          "type": "string"
        },
        {
          "internalType": "string",
          "name": "",
          "type": "string"
        },
        {
          "internalType": "string",
          "name": "",
          "type": "string"
        },
        {
          "internalType": "address",
          "name": "",
          "type": "address"
        }
      ],
      "stateMutability": "view",
      "type": "function"
    },
    {
      "inputs": [
        {
          "internalType": "address",
          "name": "owner",
          "type": "address"
        },
        {
          "internalType": "address",
          "name": "operator",
          "type": "address"
        }
      ],
      "name": "isApprovedForAll",
      "outputs": [
        {
          "internalType": "bool",
          "name": "",
          "type": "bool"
        }
      ],
      "stateMutability": "view",
      "type": "function"
    },
    {
      "inputs": [],
      "name": "name",
      "outputs": [
        {
          "internalType": "string",
          "name": "",
          "type": "string"
        }
      ],
      "stateMutability": "view",
      "type": "function"
    },
    {
      "inputs": [
        {
          "internalType": "uint256",
          "name": "tokenId",
          "type": "uint256"
        }
      ],
      "name": "ownerOf",
      "outputs": [
        {
          "internalType": "address",
          "name": "",
          "type": "address"
        }
      ],
      "stateMutability": "view",
      "type": "function"
    },
    {
      "inputs": [],
      "name": "receiveMoney",
      "outputs": [],
      "stateMutability": "payable",
      "type": "function"
    },
    {
      "inputs": [
        {
          "internalType": "address",
          "name": "from",
          "type": "address"
        },
        {
          "internalType": "address",
          "name": "to",
          "type": "address"
        },
        {
          "internalType": "uint256",
          "name": "tokenId",
          "type": "uint256"
        }
      ],
      "name": "safeTransferFrom",
      "outputs": [],
      "stateMutability": "nonpayable",
      "type": "function"
    },
    {
      "inputs": [
        {
          "internalType": "address",
          "name": "from",
          "type": "address"
        },
        {
          "internalType": "address",
          "name": "to",
          "type": "address"
        },
        {
          "internalType": "uint256",
          "name": "tokenId",
          "type": "uint256"
        },
        {
          "internalType": "bytes",
          "name": "_data",
          "type": "bytes"
        }
      ],
      "name": "safeTransferFrom",
      "outputs": [],
      "stateMutability": "nonpayable",
      "type": "function"
    },
    {
      "inputs": [
        {
          "internalType": "address",
          "name": "operator",
          "type": "address"
        },
        {
          "internalType": "bool",
          "name": "approved",
          "type": "bool"
        }
      ],
      "name": "setApprovalForAll",
      "outputs": [],
      "stateMutability": "nonpayable",
      "type": "function"
    },
    {
      "inputs": [
        {
          "internalType": "bytes4",
          "name": "interfaceId",
          "type": "bytes4"
        }
      ],
      "name": "supportsInterface",
      "outputs": [
        {
          "internalType": "bool",
          "name": "",
          "type": "bool"
        }
      ],
      "stateMutability": "view",
      "type": "function"
    },
    {
      "inputs": [],
      "name": "symbol",
      "outputs": [
        {
          "internalType": "string",
          "name": "",
          "type": "string"
        }
      ],
      "stateMutability": "view",
      "type": "function"
    },
    {
      "inputs": [
        {
          "internalType": "uint256",
          "name": "tokenId",
          "type": "uint256"
        }
      ],
      "name": "tokenURI",
      "outputs": [
        {
          "internalType": "string",
          "name": "",
          "type": "string"
        }
      ],
      "stateMutability": "view",
      "type": "function"
    },
    {
      "inputs": [
        {
          "internalType": "address",
          "name": "from",
          "type": "address"
        },
        {
          "internalType": "address",
          "name": "to",
          "type": "address"
        },
        {
          "internalType": "uint256",
          "name": "tokenId",
          "type": "uint256"
        }
      ],
      "name": "transferFrom",
      "outputs": [],
      "stateMutability": "nonpayable",
      "type": "function"
    },
    {
      "stateMutability": "payable",
      "type": "receive"
    }
  ],
  "bytecode": "0x608060405260405162002ceb38038062002ceb8339818101604052810190620000299190620002a4565b6040518060400160405280600481526020017f43455254000000000000000000000000000000000000000000000000000000008152506040518060400160405280600381526020017f43525400000000000000000000000000000000000000000000000000000000008152508160009080519060200190620000ad9291906200016b565b508060019080519060200190620000c69291906200016b565b5050508360076001019080519060200190620000e49291906200016b565b508260076002019080519060200190620001009291906200016b565b5081600760030190805190602001906200011c9291906200016b565b5080600760000160006101000a81548173ffffffffffffffffffffffffffffffffffffffff021916908373ffffffffffffffffffffffffffffffffffffffff1602179055505050505062000519565b828054620001799062000424565b90600052602060002090601f0160209004810192826200019d5760008555620001e9565b82601f10620001b857805160ff1916838001178555620001e9565b82800160010185558215620001e9579182015b82811115620001e8578251825591602001919060010190620001cb565b5b509050620001f89190620001fc565b5090565b5b8082111562000217576000816000905550600101620001fd565b5090565b6000620002326200022c8462000384565b6200035b565b9050828152602081018484840111156200024b57600080fd5b62000258848285620003ee565b509392505050565b6000815190506200027181620004ff565b92915050565b600082601f8301126200028957600080fd5b81516200029b8482602086016200021b565b91505092915050565b60008060008060808587031215620002bb57600080fd5b600085015167ffffffffffffffff811115620002d657600080fd5b620002e48782880162000277565b945050602085015167ffffffffffffffff8111156200030257600080fd5b620003108782880162000277565b935050604085015167ffffffffffffffff8111156200032e57600080fd5b6200033c8782880162000277565b92505060606200034f8782880162000260565b91505092959194509250565b6000620003676200037a565b90506200037582826200045a565b919050565b6000604051905090565b600067ffffffffffffffff821115620003a257620003a1620004bf565b5b620003ad82620004ee565b9050602081019050919050565b6000620003c782620003ce565b9050919050565b600073ffffffffffffffffffffffffffffffffffffffff82169050919050565b60005b838110156200040e578082015181840152602081019050620003f1565b838111156200041e576000848401525b50505050565b600060028204905060018216806200043d57607f821691505b6020821081141562000454576200045362000490565b5b50919050565b6200046582620004ee565b810181811067ffffffffffffffff82111715620004875762000486620004bf565b5b80604052505050565b7f4e487b7100000000000000000000000000000000000000000000000000000000600052602260045260246000fd5b7f4e487b7100000000000000000000000000000000000000000000000000000000600052604160045260246000fd5b6000601f19601f8301169050919050565b6200050a81620003ba565b81146200051657600080fd5b50565b6127c280620005296000396000f3fe6080604052600436106100f75760003560e01c806370a082311161008a578063b9e2bea011610059578063b9e2bea01461032c578063c87b56dd1461035a578063cc6cb19a14610397578063e985e9c5146103d457610106565b806370a082311461027257806395d89b41146102af578063a22cb465146102da578063b88d4fde1461030357610106565b806323b872dd116100c657806323b872dd146101d957806342842e0e146102025780636352211e1461022b5780636d26ec181461026857610106565b806301ffc9a71461010b57806306fdde0314610148578063081812fc14610173578063095ea7b3146101b057610106565b3661010657610104610411565b005b600080fd5b34801561011757600080fd5b50610132600480360381019061012d9190611a42565b610457565b60405161013f9190611dbc565b60405180910390f35b34801561015457600080fd5b5061015d610539565b60405161016a9190611dd7565b60405180910390f35b34801561017f57600080fd5b5061019a60048036038101906101959190611a94565b6105cb565b6040516101a79190611d55565b60405180910390f35b3480156101bc57600080fd5b506101d760048036038101906101d29190611a06565b610650565b005b3480156101e557600080fd5b5061020060048036038101906101fb9190611900565b610768565b005b34801561020e57600080fd5b5061022960048036038101906102249190611900565b6107c8565b005b34801561023757600080fd5b50610252600480360381019061024d9190611a94565b6107e8565b60405161025f9190611d55565b60405180910390f35b610270610411565b005b34801561027e57600080fd5b506102996004803603810190610294919061189b565b61089a565b6040516102a69190611fd3565b60405180910390f35b3480156102bb57600080fd5b506102c4610952565b6040516102d19190611dd7565b60405180910390f35b3480156102e657600080fd5b5061030160048036038101906102fc91906119ca565b6109e4565b005b34801561030f57600080fd5b5061032a6004803603810190610325919061194f565b6109fa565b005b34801561033857600080fd5b50610341610a5c565b6040516103519493929190611df9565b60405180910390f35b34801561036657600080fd5b50610381600480360381019061037c9190611a94565b610c4a565b60405161038e9190611dd7565b60405180910390f35b3480156103a357600080fd5b506103be60048036038101906103b9919061189b565b610cf1565b6040516103cb9190611fd3565b60405180910390f35b3480156103e057600080fd5b506103fb60048036038101906103f691906118c4565b610d09565b6040516104089190611dbc565b60405180910390f35b34600660003373ffffffffffffffffffffffffffffffffffffffff1673ffffffffffffffffffffffffffffffffffffffff16815260200190815260200160002081905550565b60007f80ac58cd000000000000000000000000000000000000000000000000000000007bffffffffffffffffffffffffffffffffffffffffffffffffffffffff1916827bffffffffffffffffffffffffffffffffffffffffffffffffffffffff1916148061052257507f5b5e139f000000000000000000000000000000000000000000000000000000007bffffffffffffffffffffffffffffffffffffffffffffffffffffffff1916827bffffffffffffffffffffffffffffffffffffffffffffffffffffffff1916145b80610532575061053182610d9d565b5b9050919050565b606060008054610548906121f8565b80601f0160208091040260200160405190810160405280929190818152602001828054610574906121f8565b80156105c15780601f10610596576101008083540402835291602001916105c1565b820191906000526020600020905b8154815290600101906020018083116105a457829003601f168201915b5050505050905090565b60006105d682610e07565b610615576040517f08c379a000000000000000000000000000000000000000000000000000000000815260040161060c90611f53565b60405180910390fd5b6004600083815260200190815260200160002060009054906101000a900473ffffffffffffffffffffffffffffffffffffffff169050919050565b600061065b826107e8565b90508073ffffffffffffffffffffffffffffffffffffffff168373ffffffffffffffffffffffffffffffffffffffff1614156106cc576040517f08c379a00000000000000000000000000000000000000000000000000000000081526004016106c390611f93565b60405180910390fd5b8073ffffffffffffffffffffffffffffffffffffffff166106eb610e73565b73ffffffffffffffffffffffffffffffffffffffff16148061071a575061071981610714610e73565b610d09565b5b610759576040517f08c379a000000000000000000000000000000000000000000000000000000000815260040161075090611ef3565b60405180910390fd5b6107638383610e7b565b505050565b610779610773610e73565b82610f34565b6107b8576040517f08c379a00000000000000000000000000000000000000000000000000000000081526004016107af90611fb3565b60405180910390fd5b6107c3838383611012565b505050565b6107e3838383604051806020016040528060008152506109fa565b505050565b6000806002600084815260200190815260200160002060009054906101000a900473ffffffffffffffffffffffffffffffffffffffff169050600073ffffffffffffffffffffffffffffffffffffffff168173ffffffffffffffffffffffffffffffffffffffff161415610891576040517f08c379a000000000000000000000000000000000000000000000000000000000815260040161088890611f33565b60405180910390fd5b80915050919050565b60008073ffffffffffffffffffffffffffffffffffffffff168273ffffffffffffffffffffffffffffffffffffffff16141561090b576040517f08c379a000000000000000000000000000000000000000000000000000000000815260040161090290611f13565b60405180910390fd5b600360008373ffffffffffffffffffffffffffffffffffffffff1673ffffffffffffffffffffffffffffffffffffffff168152602001908152602001600020549050919050565b606060018054610961906121f8565b80601f016020809104026020016040519081016040528092919081815260200182805461098d906121f8565b80156109da5780601f106109af576101008083540402835291602001916109da565b820191906000526020600020905b8154815290600101906020018083116109bd57829003601f168201915b5050505050905090565b6109f66109ef610e73565b8383611279565b5050565b610a0b610a05610e73565b83610f34565b610a4a576040517f08c379a0000000000000000000000000000000000000000000000000000000008152600401610a4190611fb3565b60405180910390fd5b610a56848484846113e6565b50505050565b60608060606000600760010160076002016007600301600760000160009054906101000a900473ffffffffffffffffffffffffffffffffffffffff16838054610aa4906121f8565b80601f0160208091040260200160405190810160405280929190818152602001828054610ad0906121f8565b8015610b1d5780601f10610af257610100808354040283529160200191610b1d565b820191906000526020600020905b815481529060010190602001808311610b0057829003601f168201915b50505050509350828054610b30906121f8565b80601f0160208091040260200160405190810160405280929190818152602001828054610b5c906121f8565b8015610ba95780601f10610b7e57610100808354040283529160200191610ba9565b820191906000526020600020905b815481529060010190602001808311610b8c57829003601f168201915b50505050509250818054610bbc906121f8565b80601f0160208091040260200160405190810160405280929190818152602001828054610be8906121f8565b8015610c355780601f10610c0a57610100808354040283529160200191610c35565b820191906000526020600020905b815481529060010190602001808311610c1857829003601f168201915b50505050509150935093509350935090919293565b6060610c5582610e07565b610c94576040517f08c379a0000000000000000000000000000000000000000000000000000000008152600401610c8b90611f73565b60405180910390fd5b6000610c9e611442565b90506000815111610cbe5760405180602001604052806000815250610ce9565b80610cc884611459565b604051602001610cd9929190611d31565b6040516020818303038152906040525b915050919050565b60066020528060005260406000206000915090505481565b6000600560008473ffffffffffffffffffffffffffffffffffffffff1673ffffffffffffffffffffffffffffffffffffffff16815260200190815260200160002060008373ffffffffffffffffffffffffffffffffffffffff1673ffffffffffffffffffffffffffffffffffffffff16815260200190815260200160002060009054906101000a900460ff16905092915050565b60007f01ffc9a7000000000000000000000000000000000000000000000000000000007bffffffffffffffffffffffffffffffffffffffffffffffffffffffff1916827bffffffffffffffffffffffffffffffffffffffffffffffffffffffff1916149050919050565b60008073ffffffffffffffffffffffffffffffffffffffff166002600084815260200190815260200160002060009054906101000a900473ffffffffffffffffffffffffffffffffffffffff1673ffffffffffffffffffffffffffffffffffffffff1614159050919050565b600033905090565b816004600083815260200190815260200160002060006101000a81548173ffffffffffffffffffffffffffffffffffffffff021916908373ffffffffffffffffffffffffffffffffffffffff160217905550808273ffffffffffffffffffffffffffffffffffffffff16610eee836107e8565b73ffffffffffffffffffffffffffffffffffffffff167f8c5be1e5ebec7d5bd14f71427d1e84f3dd0314c0f7b2291e5b200ac8c7c3b92560405160405180910390a45050565b6000610f3f82610e07565b610f7e576040517f08c379a0000000000000000000000000000000000000000000000000000000008152600401610f7590611ed3565b60405180910390fd5b6000610f89836107e8565b90508073ffffffffffffffffffffffffffffffffffffffff168473ffffffffffffffffffffffffffffffffffffffff161480610ff857508373ffffffffffffffffffffffffffffffffffffffff16610fe0846105cb565b73ffffffffffffffffffffffffffffffffffffffff16145b8061100957506110088185610d09565b5b91505092915050565b8273ffffffffffffffffffffffffffffffffffffffff16611032826107e8565b73ffffffffffffffffffffffffffffffffffffffff1614611088576040517f08c379a000000000000000000000000000000000000000000000000000000000815260040161107f90611e73565b60405180910390fd5b600073ffffffffffffffffffffffffffffffffffffffff168273ffffffffffffffffffffffffffffffffffffffff1614156110f8576040517f08c379a00000000000000000000000000000000000000000000000000000000081526004016110ef90611e93565b60405180910390fd5b611103838383611606565b61110e600082610e7b565b6001600360008573ffffffffffffffffffffffffffffffffffffffff1673ffffffffffffffffffffffffffffffffffffffff168152602001908152602001600020600082825461115e919061210e565b925050819055506001600360008473ffffffffffffffffffffffffffffffffffffffff1673ffffffffffffffffffffffffffffffffffffffff16815260200190815260200160002060008282546111b59190612087565b92505081905550816002600083815260200190815260200160002060006101000a81548173ffffffffffffffffffffffffffffffffffffffff021916908373ffffffffffffffffffffffffffffffffffffffff160217905550808273ffffffffffffffffffffffffffffffffffffffff168473ffffffffffffffffffffffffffffffffffffffff167fddf252ad1be2c89b69c2b068fc378daa952ba7f163c4a11628f55a4df523b3ef60405160405180910390a461127483838361160b565b505050565b8173ffffffffffffffffffffffffffffffffffffffff168373ffffffffffffffffffffffffffffffffffffffff1614156112e8576040517f08c379a00000000000000000000000000000000000000000000000000000000081526004016112df90611eb3565b60405180910390fd5b80600560008573ffffffffffffffffffffffffffffffffffffffff1673ffffffffffffffffffffffffffffffffffffffff16815260200190815260200160002060008473ffffffffffffffffffffffffffffffffffffffff1673ffffffffffffffffffffffffffffffffffffffff16815260200190815260200160002060006101000a81548160ff0219169083151502179055508173ffffffffffffffffffffffffffffffffffffffff168373ffffffffffffffffffffffffffffffffffffffff167f17307eab39ab6107e8899845ad3d59bd9653f200f220920489ca2b5937696c31836040516113d99190611dbc565b60405180910390a3505050565b6113f1848484611012565b6113fd84848484611610565b61143c576040517f08c379a000000000000000000000000000000000000000000000000000000000815260040161143390611e53565b60405180910390fd5b50505050565b606060405180602001604052806000815250905090565b606060008214156114a1576040518060400160405280600181526020017f30000000000000000000000000000000000000000000000000000000000000008152509050611601565b600082905060005b600082146114d35780806114bc9061225b565b915050600a826114cc91906120dd565b91506114a9565b60008167ffffffffffffffff811115611515577f4e487b7100000000000000000000000000000000000000000000000000000000600052604160045260246000fd5b6040519080825280601f01601f1916602001820160405280156115475781602001600182028036833780820191505090505b5090505b600085146115fa57600182611560919061210e565b9150600a8561156f91906122a4565b603061157b9190612087565b60f81b8183815181106115b7577f4e487b7100000000000000000000000000000000000000000000000000000000600052603260045260246000fd5b60200101907effffffffffffffffffffffffffffffffffffffffffffffffffffffffffffff1916908160001a905350600a856115f391906120dd565b945061154b565b8093505050505b919050565b505050565b505050565b60006116318473ffffffffffffffffffffffffffffffffffffffff166117a7565b1561179a578373ffffffffffffffffffffffffffffffffffffffff1663150b7a0261165a610e73565b8786866040518563ffffffff1660e01b815260040161167c9493929190611d70565b602060405180830381600087803b15801561169657600080fd5b505af19250505080156116c757506040513d601f19601f820116820180604052508101906116c49190611a6b565b60015b61174a573d80600081146116f7576040519150601f19603f3d011682016040523d82523d6000602084013e6116fc565b606091505b50600081511415611742576040517f08c379a000000000000000000000000000000000000000000000000000000000815260040161173990611e53565b60405180910390fd5b805181602001fd5b63150b7a0260e01b7bffffffffffffffffffffffffffffffffffffffffffffffffffffffff1916817bffffffffffffffffffffffffffffffffffffffffffffffffffffffff19161491505061179f565b600190505b949350505050565b6000808273ffffffffffffffffffffffffffffffffffffffff163b119050919050565b60006117dd6117d884612013565b611fee565b9050828152602081018484840111156117f557600080fd5b6118008482856121b6565b509392505050565b60008135905061181781612730565b92915050565b60008135905061182c81612747565b92915050565b6000813590506118418161275e565b92915050565b6000815190506118568161275e565b92915050565b600082601f83011261186d57600080fd5b813561187d8482602086016117ca565b91505092915050565b60008135905061189581612775565b92915050565b6000602082840312156118ad57600080fd5b60006118bb84828501611808565b91505092915050565b600080604083850312156118d757600080fd5b60006118e585828601611808565b92505060206118f685828601611808565b9150509250929050565b60008060006060848603121561191557600080fd5b600061192386828701611808565b935050602061193486828701611808565b925050604061194586828701611886565b9150509250925092565b6000806000806080858703121561196557600080fd5b600061197387828801611808565b945050602061198487828801611808565b935050604061199587828801611886565b925050606085013567ffffffffffffffff8111156119b257600080fd5b6119be8782880161185c565b91505092959194509250565b600080604083850312156119dd57600080fd5b60006119eb85828601611808565b92505060206119fc8582860161181d565b9150509250929050565b60008060408385031215611a1957600080fd5b6000611a2785828601611808565b9250506020611a3885828601611886565b9150509250929050565b600060208284031215611a5457600080fd5b6000611a6284828501611832565b91505092915050565b600060208284031215611a7d57600080fd5b6000611a8b84828501611847565b91505092915050565b600060208284031215611aa657600080fd5b6000611ab484828501611886565b91505092915050565b611ac681612142565b82525050565b611ad581612154565b82525050565b6000611ae682612044565b611af0818561205a565b9350611b008185602086016121c5565b611b0981612391565b840191505092915050565b6000611b1f8261204f565b611b29818561206b565b9350611b398185602086016121c5565b611b4281612391565b840191505092915050565b6000611b588261204f565b611b62818561207c565b9350611b728185602086016121c5565b80840191505092915050565b6000611b8b60328361206b565b9150611b96826123a2565b604082019050919050565b6000611bae60258361206b565b9150611bb9826123f1565b604082019050919050565b6000611bd160248361206b565b9150611bdc82612440565b604082019050919050565b6000611bf460198361206b565b9150611bff8261248f565b602082019050919050565b6000611c17602c8361206b565b9150611c22826124b8565b604082019050919050565b6000611c3a60388361206b565b9150611c4582612507565b604082019050919050565b6000611c5d602a8361206b565b9150611c6882612556565b604082019050919050565b6000611c8060298361206b565b9150611c8b826125a5565b604082019050919050565b6000611ca3602c8361206b565b9150611cae826125f4565b604082019050919050565b6000611cc6602f8361206b565b9150611cd182612643565b604082019050919050565b6000611ce960218361206b565b9150611cf482612692565b604082019050919050565b6000611d0c60318361206b565b9150611d17826126e1565b604082019050919050565b611d2b816121ac565b82525050565b6000611d3d8285611b4d565b9150611d498284611b4d565b91508190509392505050565b6000602082019050611d6a6000830184611abd565b92915050565b6000608082019050611d856000830187611abd565b611d926020830186611abd565b611d9f6040830185611d22565b8181036060830152611db18184611adb565b905095945050505050565b6000602082019050611dd16000830184611acc565b92915050565b60006020820190508181036000830152611df18184611b14565b905092915050565b60006080820190508181036000830152611e138187611b14565b90508181036020830152611e278186611b14565b90508181036040830152611e3b8185611b14565b9050611e4a6060830184611abd565b95945050505050565b60006020820190508181036000830152611e6c81611b7e565b9050919050565b60006020820190508181036000830152611e8c81611ba1565b9050919050565b60006020820190508181036000830152611eac81611bc4565b9050919050565b60006020820190508181036000830152611ecc81611be7565b9050919050565b60006020820190508181036000830152611eec81611c0a565b9050919050565b60006020820190508181036000830152611f0c81611c2d565b9050919050565b60006020820190508181036000830152611f2c81611c50565b9050919050565b60006020820190508181036000830152611f4c81611c73565b9050919050565b60006020820190508181036000830152611f6c81611c96565b9050919050565b60006020820190508181036000830152611f8c81611cb9565b9050919050565b60006020820190508181036000830152611fac81611cdc565b9050919050565b60006020820190508181036000830152611fcc81611cff565b9050919050565b6000602082019050611fe86000830184611d22565b92915050565b6000611ff8612009565b9050612004828261222a565b919050565b6000604051905090565b600067ffffffffffffffff82111561202e5761202d612362565b5b61203782612391565b9050602081019050919050565b600081519050919050565b600081519050919050565b600082825260208201905092915050565b600082825260208201905092915050565b600081905092915050565b6000612092826121ac565b915061209d836121ac565b9250827fffffffffffffffffffffffffffffffffffffffffffffffffffffffffffffffff038211156120d2576120d16122d5565b5b828201905092915050565b60006120e8826121ac565b91506120f3836121ac565b92508261210357612102612304565b5b828204905092915050565b6000612119826121ac565b9150612124836121ac565b925082821015612137576121366122d5565b5b828203905092915050565b600061214d8261218c565b9050919050565b60008115159050919050565b60007fffffffff0000000000000000000000000000000000000000000000000000000082169050919050565b600073ffffffffffffffffffffffffffffffffffffffff82169050919050565b6000819050919050565b82818337600083830152505050565b60005b838110156121e35780820151818401526020810190506121c8565b838111156121f2576000848401525b50505050565b6000600282049050600182168061221057607f821691505b6020821081141561222457612223612333565b5b50919050565b61223382612391565b810181811067ffffffffffffffff8211171561225257612251612362565b5b80604052505050565b6000612266826121ac565b91507fffffffffffffffffffffffffffffffffffffffffffffffffffffffffffffffff821415612299576122986122d5565b5b600182019050919050565b60006122af826121ac565b91506122ba836121ac565b9250826122ca576122c9612304565b5b828206905092915050565b7f4e487b7100000000000000000000000000000000000000000000000000000000600052601160045260246000fd5b7f4e487b7100000000000000000000000000000000000000000000000000000000600052601260045260246000fd5b7f4e487b7100000000000000000000000000000000000000000000000000000000600052602260045260246000fd5b7f4e487b7100000000000000000000000000000000000000000000000000000000600052604160045260246000fd5b6000601f19601f8301169050919050565b7f4552433732313a207472616e7366657220746f206e6f6e20455243373231526560008201527f63656976657220696d706c656d656e7465720000000000000000000000000000602082015250565b7f4552433732313a207472616e736665722066726f6d20696e636f72726563742060008201527f6f776e6572000000000000000000000000000000000000000000000000000000602082015250565b7f4552433732313a207472616e7366657220746f20746865207a65726f2061646460008201527f7265737300000000000000000000000000000000000000000000000000000000602082015250565b7f4552433732313a20617070726f766520746f2063616c6c657200000000000000600082015250565b7f4552433732313a206f70657261746f7220717565727920666f72206e6f6e657860008201527f697374656e7420746f6b656e0000000000000000000000000000000000000000602082015250565b7f4552433732313a20617070726f76652063616c6c6572206973206e6f74206f7760008201527f6e6572206e6f7220617070726f76656420666f7220616c6c0000000000000000602082015250565b7f4552433732313a2062616c616e636520717565727920666f7220746865207a6560008201527f726f206164647265737300000000000000000000000000000000000000000000602082015250565b7f4552433732313a206f776e657220717565727920666f72206e6f6e657869737460008201527f656e7420746f6b656e0000000000000000000000000000000000000000000000602082015250565b7f4552433732313a20617070726f76656420717565727920666f72206e6f6e657860008201527f697374656e7420746f6b656e0000000000000000000000000000000000000000602082015250565b7f4552433732314d657461646174613a2055524920717565727920666f72206e6f60008201527f6e6578697374656e7420746f6b656e0000000000000000000000000000000000602082015250565b7f4552433732313a20617070726f76616c20746f2063757272656e74206f776e6560008201527f7200000000000000000000000000000000000000000000000000000000000000602082015250565b7f4552433732313a207472616e736665722063616c6c6572206973206e6f74206f60008201527f776e6572206e6f7220617070726f766564000000000000000000000000000000602082015250565b61273981612142565b811461274457600080fd5b50565b61275081612154565b811461275b57600080fd5b50565b61276781612160565b811461277257600080fd5b50565b61277e816121ac565b811461278957600080fd5b5056fea26469706673582212208cf4c95c136eee8774b1aa3b49df4825c7c881ce063560dadf59c0b290c270ec64736f6c63430008040033",
  "linkReferences": {},
  "deployedLinkReferences": {}
}