{
  "_format": "hh-sol-artifact-1",
  "contractName": "CertWork",
  "sourceName": "contracts/CertWork.sol",
  "abi": [
    {
      "inputs": [
        {
          "internalType": "string",
          "name": "_description",
          "type": "string"
        }
      ],
      "name": "addProposal",
      "outputs": [],
      "stateMutability": "nonpayable",
      "type": "function"
    },
    {
      "inputs": [],
      "name": "proposalCount",
      "outputs": [
        {
          "internalType": "uint256",
          "name": "",
          "type": "uint256"
        }
      ],
      "stateMutability": "view",
      "type": "function"
    },
    {
      "inputs": [
        {
          "internalType": "uint256",
          "name": "",
          "type": "uint256"
        }
      ],
      "name": "proposals",
      "outputs": [
        {
          "internalType": "address",
          "name": "owner",
          "type": "address"
        },
        {
          "internalType": "string",
          "name": "description",
          "type": "string"
        },
        {
          "internalType": "uint256",
          "name": "goalAmount",
          "type": "uint256"
        },
        {
          "internalType": "uint256",
          "name": "totalRaised",
          "type": "uint256"
        },
        {
          "internalType": "string",
          "name": "bronzeMetaURI",
          "type": "string"
        },
        {
          "internalType": "string",
          "name": "silverMetaURI",
          "type": "string"
        },
        {
          "internalType": "string",
          "name": "goldMetaURI",
          "type": "string"
        }
      ],
      "stateMutability": "view",
      "type": "function"
    }
  ],
  "bytecode": "0x608060405234801561001057600080fd5b50610747806100206000396000f3fe608060405234801561001057600080fd5b50600436106100415760003560e01c8063013cf08b146100465780632fdae3c51461007c578063da35c66414610098575b600080fd5b610060600480360381019061005b91906104d7565b6100b6565b6040516100739796959493929190610557565b60405180910390f35b61009660048036038101906100919190610492565b610348565b005b6100a0610384565b6040516100ad91906105e2565b60405180910390f35b600081815481106100c657600080fd5b90600052602060002090600b02016000915090508060000160009054906101000a900473ffffffffffffffffffffffffffffffffffffffff169080600101805461010f90610688565b80601f016020809104026020016040519081016040528092919081815260200182805461013b90610688565b80156101885780601f1061015d57610100808354040283529160200191610188565b820191906000526020600020905b81548152906001019060200180831161016b57829003601f168201915b5050505050908060020154908060030154908060050180546101a990610688565b80601f01602080910402602001604051908101604052809291908181526020018280546101d590610688565b80156102225780601f106101f757610100808354040283529160200191610222565b820191906000526020600020905b81548152906001019060200180831161020557829003601f168201915b50505050509080600601805461023790610688565b80601f016020809104026020016040519081016040528092919081815260200182805461026390610688565b80156102b05780601f10610285576101008083540402835291602001916102b0565b820191906000526020600020905b81548152906001019060200180831161029357829003601f168201915b5050505050908060070180546102c590610688565b80601f01602080910402602001604051908101604052809291908181526020018280546102f190610688565b801561033e5780601f106103135761010080835404028352916020019161033e565b820191906000526020600020905b81548152906001019060200180831161032157829003601f168201915b5050505050905087565b6000806001816001815401808255809150500390600052602060002090600b02019050828282600101919061037e929190610390565b50505050565b60008080549050905090565b82805461039c90610688565b90600052602060002090601f0160209004810192826103be5760008555610405565b82601f106103d757803560ff1916838001178555610405565b82800160010185558215610405579182015b828111156104045782358255916020019190600101906103e9565b5b5090506104129190610416565b5090565b5b8082111561042f576000816000905550600101610417565b5090565b60008083601f84011261044557600080fd5b8235905067ffffffffffffffff81111561045e57600080fd5b60208301915083600182028301111561047657600080fd5b9250929050565b60008135905061048c816106fa565b92915050565b600080602083850312156104a557600080fd5b600083013567ffffffffffffffff8111156104bf57600080fd5b6104cb85828601610433565b92509250509250929050565b6000602082840312156104e957600080fd5b60006104f78482850161047d565b91505092915050565b61050981610619565b82525050565b600061051a826105fd565b6105248185610608565b9350610534818560208601610655565b61053d816106e9565b840191505092915050565b6105518161064b565b82525050565b600060e08201905061056c600083018a610500565b818103602083015261057e818961050f565b905061058d6040830188610548565b61059a6060830187610548565b81810360808301526105ac818661050f565b905081810360a08301526105c0818561050f565b905081810360c08301526105d4818461050f565b905098975050505050505050565b60006020820190506105f76000830184610548565b92915050565b600081519050919050565b600082825260208201905092915050565b60006106248261062b565b9050919050565b600073ffffffffffffffffffffffffffffffffffffffff82169050919050565b6000819050919050565b60005b83811015610673578082015181840152602081019050610658565b83811115610682576000848401525b50505050565b600060028204905060018216806106a057607f821691505b602082108114156106b4576106b36106ba565b5b50919050565b7f4e487b7100000000000000000000000000000000000000000000000000000000600052602260045260246000fd5b6000601f19601f8301169050919050565b6107038161064b565b811461070e57600080fd5b5056fea2646970667358221220c80a3c59eaede3cdc201a802cf72ff13da2f6eea51b467c5f87b508618daf81f64736f6c63430008040033",
  "linkReferences": {},
  "deployedLinkReferences": {}
}