{
  "_format": "hh-sol-artifact-1",
  "contractName": "CertWork",
  "sourceName": "contracts/CertWork.sol",
  "abi": [
    {
      "anonymous": false,
      "inputs": [
        {
          "indexed": false,
          "internalType": "address",
          "name": "",
          "type": "address"
        }
      ],
      "name": "ProposalCreated",
      "type": "event"
    },
    {
      "inputs": [
        {
          "internalType": "string",
          "name": "_bronzeURI",
          "type": "string"
        },
        {
          "internalType": "string",
          "name": "_silverURI",
          "type": "string"
        },
        {
          "internalType": "string",
          "name": "_goldURI",
          "type": "string"
        }
      ],
      "name": "addProposal",
      "outputs": [],
      "stateMutability": "nonpayable",
      "type": "function"
    },
    {
      "inputs": [
        {
          "internalType": "uint256",
          "name": "",
          "type": "uint256"
        }
      ],
      "name": "contracts",
      "outputs": [
        {
          "internalType": "address",
          "name": "",
          "type": "address"
        }
      ],
      "stateMutability": "view",
      "type": "function"
    }
  ],
  "bytecode": "0x608060405234801561001057600080fd5b50613019806100206000396000f3fe60806040523480156200001157600080fd5b50600436106200003a5760003560e01c8063474da79a146200003f578063a8e159901462000075575b600080fd5b6200005d6004803603810190620000579190620002e3565b62000095565b6040516200006c919062000353565b60405180910390f35b6200009360048036038101906200008d919062000235565b620000d5565b005b60008181548110620000a657600080fd5b906000526020600020016000915054906101000a900473ffffffffffffffffffffffffffffffffffffffff1681565b600086868686868633604051620000ec90620001c3565b620000fe979695949392919062000370565b604051809103906000f0801580156200011b573d6000803e3d6000fd5b5090506000819080600181540180825580915050600190039060005260206000200160009091909190916101000a81548173ffffffffffffffffffffffffffffffffffffffff021916908373ffffffffffffffffffffffffffffffffffffffff1602179055507f488fccde177d9377f35d8d9a4f0b3462fcc7cdb926a00d3d99630ef1d672a2cd81604051620001b2919062000353565b60405180910390a150505050505050565b612b82806200046283390190565b60008083601f840112620001e457600080fd5b8235905067ffffffffffffffff811115620001fe57600080fd5b6020830191508360018202830111156200021757600080fd5b9250929050565b6000813590506200022f8162000447565b92915050565b600080600080600080606087890312156200024f57600080fd5b600087013567ffffffffffffffff8111156200026a57600080fd5b6200027889828a01620001d1565b9650965050602087013567ffffffffffffffff8111156200029857600080fd5b620002a689828a01620001d1565b9450945050604087013567ffffffffffffffff811115620002c657600080fd5b620002d489828a01620001d1565b92509250509295509295509295565b600060208284031215620002f657600080fd5b600062000306848285016200021e565b91505092915050565b6200031a81620003e9565b82525050565b60006200032e8385620003d8565b93506200033d83858462000427565b620003488362000436565b840190509392505050565b60006020820190506200036a60008301846200030f565b92915050565b600060808201905081810360008301526200038d81898b62000320565b90508181036020830152620003a481878962000320565b90508181036040830152620003bb81858762000320565b9050620003cc60608301846200030f565b98975050505050505050565b600082825260208201905092915050565b6000620003f682620003fd565b9050919050565b600073ffffffffffffffffffffffffffffffffffffffff82169050919050565b6000819050919050565b82818337600083830152505050565b6000601f19601f8301169050919050565b62000452816200041d565b81146200045e57600080fd5b5056fe60806040523480156200001157600080fd5b5060405162002b8238038062002b828339818101604052810190620000379190620002b2565b6040518060400160405280600481526020017f43455254000000000000000000000000000000000000000000000000000000008152506040518060400160405280600381526020017f43525400000000000000000000000000000000000000000000000000000000008152508160009080519060200190620000bb92919062000179565b508060019080519060200190620000d492919062000179565b5050508360066002019080519060200190620000f292919062000179565b5082600660030190805190602001906200010e92919062000179565b5081600660040190805190602001906200012a92919062000179565b5080600660000160006101000a81548173ffffffffffffffffffffffffffffffffffffffff021916908373ffffffffffffffffffffffffffffffffffffffff1602179055505050505062000527565b828054620001879062000432565b90600052602060002090601f016020900481019282620001ab5760008555620001f7565b82601f10620001c657805160ff1916838001178555620001f7565b82800160010185558215620001f7579182015b82811115620001f6578251825591602001919060010190620001d9565b5b5090506200020691906200020a565b5090565b5b80821115620002255760008160009055506001016200020b565b5090565b6000620002406200023a8462000392565b62000369565b9050828152602081018484840111156200025957600080fd5b62000266848285620003fc565b509392505050565b6000815190506200027f816200050d565b92915050565b600082601f8301126200029757600080fd5b8151620002a984826020860162000229565b91505092915050565b60008060008060808587031215620002c957600080fd5b600085015167ffffffffffffffff811115620002e457600080fd5b620002f28782880162000285565b945050602085015167ffffffffffffffff8111156200031057600080fd5b6200031e8782880162000285565b935050604085015167ffffffffffffffff8111156200033c57600080fd5b6200034a8782880162000285565b92505060606200035d878288016200026e565b91505092959194509250565b60006200037562000388565b905062000383828262000468565b919050565b6000604051905090565b600067ffffffffffffffff821115620003b057620003af620004cd565b5b620003bb82620004fc565b9050602081019050919050565b6000620003d582620003dc565b9050919050565b600073ffffffffffffffffffffffffffffffffffffffff82169050919050565b60005b838110156200041c578082015181840152602081019050620003ff565b838111156200042c576000848401525b50505050565b600060028204905060018216806200044b57607f821691505b602082108114156200046257620004616200049e565b5b50919050565b6200047382620004fc565b810181811067ffffffffffffffff82111715620004955762000494620004cd565b5b80604052505050565b7f4e487b7100000000000000000000000000000000000000000000000000000000600052602260045260246000fd5b7f4e487b7100000000000000000000000000000000000000000000000000000000600052604160045260246000fd5b6000601f19601f8301169050919050565b6200051881620003c8565b81146200052457600080fd5b50565b61264b80620005376000396000f3fe608060405234801561001057600080fd5b50600436106100ea5760003560e01c806370a082311161008c578063b88d4fde11610066578063b88d4fde1461025b578063b9e2bea014610277578063c87b56dd14610298578063e985e9c5146102c8576100ea565b806370a08231146101f157806395d89b4114610221578063a22cb4651461023f576100ea565b8063095ea7b3116100c8578063095ea7b31461016d57806323b872dd1461018957806342842e0e146101a55780636352211e146101c1576100ea565b806301ffc9a7146100ef57806306fdde031461011f578063081812fc1461013d575b600080fd5b610109600480360381019061010491906118cb565b6102f8565b6040516101169190611c45565b60405180910390f35b6101276103da565b6040516101349190611c60565b60405180910390f35b6101576004803603810190610152919061191d565b61046c565b6040516101649190611bde565b60405180910390f35b6101876004803603810190610182919061188f565b6104f1565b005b6101a3600480360381019061019e9190611789565b610609565b005b6101bf60048036038101906101ba9190611789565b610669565b005b6101db60048036038101906101d6919061191d565b610689565b6040516101e89190611bde565b60405180910390f35b61020b60048036038101906102069190611724565b61073b565b6040516102189190611e5c565b60405180910390f35b6102296107f3565b6040516102369190611c60565b60405180910390f35b61025960048036038101906102549190611853565b610885565b005b610275600480360381019061027091906117d8565b61089b565b005b61027f6108fd565b60405161028f9493929190611c82565b60405180910390f35b6102b260048036038101906102ad919061191d565b610aeb565b6040516102bf9190611c60565b60405180910390f35b6102e260048036038101906102dd919061174d565b610b92565b6040516102ef9190611c45565b60405180910390f35b60007f80ac58cd000000000000000000000000000000000000000000000000000000007bffffffffffffffffffffffffffffffffffffffffffffffffffffffff1916827bffffffffffffffffffffffffffffffffffffffffffffffffffffffff191614806103c357507f5b5e139f000000000000000000000000000000000000000000000000000000007bffffffffffffffffffffffffffffffffffffffffffffffffffffffff1916827bffffffffffffffffffffffffffffffffffffffffffffffffffffffff1916145b806103d357506103d282610c26565b5b9050919050565b6060600080546103e990612081565b80601f016020809104026020016040519081016040528092919081815260200182805461041590612081565b80156104625780601f1061043757610100808354040283529160200191610462565b820191906000526020600020905b81548152906001019060200180831161044557829003601f168201915b5050505050905090565b600061047782610c90565b6104b6576040517f08c379a00000000000000000000000000000000000000000000000000000000081526004016104ad90611ddc565b60405180910390fd5b6004600083815260200190815260200160002060009054906101000a900473ffffffffffffffffffffffffffffffffffffffff169050919050565b60006104fc82610689565b90508073ffffffffffffffffffffffffffffffffffffffff168373ffffffffffffffffffffffffffffffffffffffff16141561056d576040517f08c379a000000000000000000000000000000000000000000000000000000000815260040161056490611e1c565b60405180910390fd5b8073ffffffffffffffffffffffffffffffffffffffff1661058c610cfc565b73ffffffffffffffffffffffffffffffffffffffff1614806105bb57506105ba816105b5610cfc565b610b92565b5b6105fa576040517f08c379a00000000000000000000000000000000000000000000000000000000081526004016105f190611d7c565b60405180910390fd5b6106048383610d04565b505050565b61061a610614610cfc565b82610dbd565b610659576040517f08c379a000000000000000000000000000000000000000000000000000000000815260040161065090611e3c565b60405180910390fd5b610664838383610e9b565b505050565b6106848383836040518060200160405280600081525061089b565b505050565b6000806002600084815260200190815260200160002060009054906101000a900473ffffffffffffffffffffffffffffffffffffffff169050600073ffffffffffffffffffffffffffffffffffffffff168173ffffffffffffffffffffffffffffffffffffffff161415610732576040517f08c379a000000000000000000000000000000000000000000000000000000000815260040161072990611dbc565b60405180910390fd5b80915050919050565b60008073ffffffffffffffffffffffffffffffffffffffff168273ffffffffffffffffffffffffffffffffffffffff1614156107ac576040517f08c379a00000000000000000000000000000000000000000000000000000000081526004016107a390611d9c565b60405180910390fd5b600360008373ffffffffffffffffffffffffffffffffffffffff1673ffffffffffffffffffffffffffffffffffffffff168152602001908152602001600020549050919050565b60606001805461080290612081565b80601f016020809104026020016040519081016040528092919081815260200182805461082e90612081565b801561087b5780601f106108505761010080835404028352916020019161087b565b820191906000526020600020905b81548152906001019060200180831161085e57829003601f168201915b5050505050905090565b610897610890610cfc565b8383611102565b5050565b6108ac6108a6610cfc565b83610dbd565b6108eb576040517f08c379a00000000000000000000000000000000000000000000000000000000081526004016108e290611e3c565b60405180910390fd5b6108f78484848461126f565b50505050565b60608060606000600660020160066003016006600401600660000160009054906101000a900473ffffffffffffffffffffffffffffffffffffffff1683805461094590612081565b80601f016020809104026020016040519081016040528092919081815260200182805461097190612081565b80156109be5780601f10610993576101008083540402835291602001916109be565b820191906000526020600020905b8154815290600101906020018083116109a157829003601f168201915b505050505093508280546109d190612081565b80601f01602080910402602001604051908101604052809291908181526020018280546109fd90612081565b8015610a4a5780601f10610a1f57610100808354040283529160200191610a4a565b820191906000526020600020905b815481529060010190602001808311610a2d57829003601f168201915b50505050509250818054610a5d90612081565b80601f0160208091040260200160405190810160405280929190818152602001828054610a8990612081565b8015610ad65780601f10610aab57610100808354040283529160200191610ad6565b820191906000526020600020905b815481529060010190602001808311610ab957829003601f168201915b50505050509150935093509350935090919293565b6060610af682610c90565b610b35576040517f08c379a0000000000000000000000000000000000000000000000000000000008152600401610b2c90611dfc565b60405180910390fd5b6000610b3f6112cb565b90506000815111610b5f5760405180602001604052806000815250610b8a565b80610b69846112e2565b604051602001610b7a929190611bba565b6040516020818303038152906040525b915050919050565b6000600560008473ffffffffffffffffffffffffffffffffffffffff1673ffffffffffffffffffffffffffffffffffffffff16815260200190815260200160002060008373ffffffffffffffffffffffffffffffffffffffff1673ffffffffffffffffffffffffffffffffffffffff16815260200190815260200160002060009054906101000a900460ff16905092915050565b60007f01ffc9a7000000000000000000000000000000000000000000000000000000007bffffffffffffffffffffffffffffffffffffffffffffffffffffffff1916827bffffffffffffffffffffffffffffffffffffffffffffffffffffffff1916149050919050565b60008073ffffffffffffffffffffffffffffffffffffffff166002600084815260200190815260200160002060009054906101000a900473ffffffffffffffffffffffffffffffffffffffff1673ffffffffffffffffffffffffffffffffffffffff1614159050919050565b600033905090565b816004600083815260200190815260200160002060006101000a81548173ffffffffffffffffffffffffffffffffffffffff021916908373ffffffffffffffffffffffffffffffffffffffff160217905550808273ffffffffffffffffffffffffffffffffffffffff16610d7783610689565b73ffffffffffffffffffffffffffffffffffffffff167f8c5be1e5ebec7d5bd14f71427d1e84f3dd0314c0f7b2291e5b200ac8c7c3b92560405160405180910390a45050565b6000610dc882610c90565b610e07576040517f08c379a0000000000000000000000000000000000000000000000000000000008152600401610dfe90611d5c565b60405180910390fd5b6000610e1283610689565b90508073ffffffffffffffffffffffffffffffffffffffff168473ffffffffffffffffffffffffffffffffffffffff161480610e8157508373ffffffffffffffffffffffffffffffffffffffff16610e698461046c565b73ffffffffffffffffffffffffffffffffffffffff16145b80610e925750610e918185610b92565b5b91505092915050565b8273ffffffffffffffffffffffffffffffffffffffff16610ebb82610689565b73ffffffffffffffffffffffffffffffffffffffff1614610f11576040517f08c379a0000000000000000000000000000000000000000000000000000000008152600401610f0890611cfc565b60405180910390fd5b600073ffffffffffffffffffffffffffffffffffffffff168273ffffffffffffffffffffffffffffffffffffffff161415610f81576040517f08c379a0000000000000000000000000000000000000000000000000000000008152600401610f7890611d1c565b60405180910390fd5b610f8c83838361148f565b610f97600082610d04565b6001600360008573ffffffffffffffffffffffffffffffffffffffff1673ffffffffffffffffffffffffffffffffffffffff1681526020019081526020016000206000828254610fe79190611f97565b925050819055506001600360008473ffffffffffffffffffffffffffffffffffffffff1673ffffffffffffffffffffffffffffffffffffffff168152602001908152602001600020600082825461103e9190611f10565b92505081905550816002600083815260200190815260200160002060006101000a81548173ffffffffffffffffffffffffffffffffffffffff021916908373ffffffffffffffffffffffffffffffffffffffff160217905550808273ffffffffffffffffffffffffffffffffffffffff168473ffffffffffffffffffffffffffffffffffffffff167fddf252ad1be2c89b69c2b068fc378daa952ba7f163c4a11628f55a4df523b3ef60405160405180910390a46110fd838383611494565b505050565b8173ffffffffffffffffffffffffffffffffffffffff168373ffffffffffffffffffffffffffffffffffffffff161415611171576040517f08c379a000000000000000000000000000000000000000000000000000000000815260040161116890611d3c565b60405180910390fd5b80600560008573ffffffffffffffffffffffffffffffffffffffff1673ffffffffffffffffffffffffffffffffffffffff16815260200190815260200160002060008473ffffffffffffffffffffffffffffffffffffffff1673ffffffffffffffffffffffffffffffffffffffff16815260200190815260200160002060006101000a81548160ff0219169083151502179055508173ffffffffffffffffffffffffffffffffffffffff168373ffffffffffffffffffffffffffffffffffffffff167f17307eab39ab6107e8899845ad3d59bd9653f200f220920489ca2b5937696c31836040516112629190611c45565b60405180910390a3505050565b61127a848484610e9b565b61128684848484611499565b6112c5576040517f08c379a00000000000000000000000000000000000000000000000000000000081526004016112bc90611cdc565b60405180910390fd5b50505050565b606060405180602001604052806000815250905090565b6060600082141561132a576040518060400160405280600181526020017f3000000000000000000000000000000000000000000000000000000000000000815250905061148a565b600082905060005b6000821461135c578080611345906120e4565b915050600a826113559190611f66565b9150611332565b60008167ffffffffffffffff81111561139e577f4e487b7100000000000000000000000000000000000000000000000000000000600052604160045260246000fd5b6040519080825280601f01601f1916602001820160405280156113d05781602001600182028036833780820191505090505b5090505b60008514611483576001826113e99190611f97565b9150600a856113f8919061212d565b60306114049190611f10565b60f81b818381518110611440577f4e487b7100000000000000000000000000000000000000000000000000000000600052603260045260246000fd5b60200101907effffffffffffffffffffffffffffffffffffffffffffffffffffffffffffff1916908160001a905350600a8561147c9190611f66565b94506113d4565b8093505050505b919050565b505050565b505050565b60006114ba8473ffffffffffffffffffffffffffffffffffffffff16611630565b15611623578373ffffffffffffffffffffffffffffffffffffffff1663150b7a026114e3610cfc565b8786866040518563ffffffff1660e01b81526004016115059493929190611bf9565b602060405180830381600087803b15801561151f57600080fd5b505af192505050801561155057506040513d601f19601f8201168201806040525081019061154d91906118f4565b60015b6115d3573d8060008114611580576040519150601f19603f3d011682016040523d82523d6000602084013e611585565b606091505b506000815114156115cb576040517f08c379a00000000000000000000000000000000000000000000000000000000081526004016115c290611cdc565b60405180910390fd5b805181602001fd5b63150b7a0260e01b7bffffffffffffffffffffffffffffffffffffffffffffffffffffffff1916817bffffffffffffffffffffffffffffffffffffffffffffffffffffffff191614915050611628565b600190505b949350505050565b6000808273ffffffffffffffffffffffffffffffffffffffff163b119050919050565b600061166661166184611e9c565b611e77565b90508281526020810184848401111561167e57600080fd5b61168984828561203f565b509392505050565b6000813590506116a0816125b9565b92915050565b6000813590506116b5816125d0565b92915050565b6000813590506116ca816125e7565b92915050565b6000815190506116df816125e7565b92915050565b600082601f8301126116f657600080fd5b8135611706848260208601611653565b91505092915050565b60008135905061171e816125fe565b92915050565b60006020828403121561173657600080fd5b600061174484828501611691565b91505092915050565b6000806040838503121561176057600080fd5b600061176e85828601611691565b925050602061177f85828601611691565b9150509250929050565b60008060006060848603121561179e57600080fd5b60006117ac86828701611691565b93505060206117bd86828701611691565b92505060406117ce8682870161170f565b9150509250925092565b600080600080608085870312156117ee57600080fd5b60006117fc87828801611691565b945050602061180d87828801611691565b935050604061181e8782880161170f565b925050606085013567ffffffffffffffff81111561183b57600080fd5b611847878288016116e5565b91505092959194509250565b6000806040838503121561186657600080fd5b600061187485828601611691565b9250506020611885858286016116a6565b9150509250929050565b600080604083850312156118a257600080fd5b60006118b085828601611691565b92505060206118c18582860161170f565b9150509250929050565b6000602082840312156118dd57600080fd5b60006118eb848285016116bb565b91505092915050565b60006020828403121561190657600080fd5b6000611914848285016116d0565b91505092915050565b60006020828403121561192f57600080fd5b600061193d8482850161170f565b91505092915050565b61194f81611fcb565b82525050565b61195e81611fdd565b82525050565b600061196f82611ecd565b6119798185611ee3565b935061198981856020860161204e565b6119928161221a565b840191505092915050565b60006119a882611ed8565b6119b28185611ef4565b93506119c281856020860161204e565b6119cb8161221a565b840191505092915050565b60006119e182611ed8565b6119eb8185611f05565b93506119fb81856020860161204e565b80840191505092915050565b6000611a14603283611ef4565b9150611a1f8261222b565b604082019050919050565b6000611a37602583611ef4565b9150611a428261227a565b604082019050919050565b6000611a5a602483611ef4565b9150611a65826122c9565b604082019050919050565b6000611a7d601983611ef4565b9150611a8882612318565b602082019050919050565b6000611aa0602c83611ef4565b9150611aab82612341565b604082019050919050565b6000611ac3603883611ef4565b9150611ace82612390565b604082019050919050565b6000611ae6602a83611ef4565b9150611af1826123df565b604082019050919050565b6000611b09602983611ef4565b9150611b148261242e565b604082019050919050565b6000611b2c602c83611ef4565b9150611b378261247d565b604082019050919050565b6000611b4f602f83611ef4565b9150611b5a826124cc565b604082019050919050565b6000611b72602183611ef4565b9150611b7d8261251b565b604082019050919050565b6000611b95603183611ef4565b9150611ba08261256a565b604082019050919050565b611bb481612035565b82525050565b6000611bc682856119d6565b9150611bd282846119d6565b91508190509392505050565b6000602082019050611bf36000830184611946565b92915050565b6000608082019050611c0e6000830187611946565b611c1b6020830186611946565b611c286040830185611bab565b8181036060830152611c3a8184611964565b905095945050505050565b6000602082019050611c5a6000830184611955565b92915050565b60006020820190508181036000830152611c7a818461199d565b905092915050565b60006080820190508181036000830152611c9c818761199d565b90508181036020830152611cb0818661199d565b90508181036040830152611cc4818561199d565b9050611cd36060830184611946565b95945050505050565b60006020820190508181036000830152611cf581611a07565b9050919050565b60006020820190508181036000830152611d1581611a2a565b9050919050565b60006020820190508181036000830152611d3581611a4d565b9050919050565b60006020820190508181036000830152611d5581611a70565b9050919050565b60006020820190508181036000830152611d7581611a93565b9050919050565b60006020820190508181036000830152611d9581611ab6565b9050919050565b60006020820190508181036000830152611db581611ad9565b9050919050565b60006020820190508181036000830152611dd581611afc565b9050919050565b60006020820190508181036000830152611df581611b1f565b9050919050565b60006020820190508181036000830152611e1581611b42565b9050919050565b60006020820190508181036000830152611e3581611b65565b9050919050565b60006020820190508181036000830152611e5581611b88565b9050919050565b6000602082019050611e716000830184611bab565b92915050565b6000611e81611e92565b9050611e8d82826120b3565b919050565b6000604051905090565b600067ffffffffffffffff821115611eb757611eb66121eb565b5b611ec08261221a565b9050602081019050919050565b600081519050919050565b600081519050919050565b600082825260208201905092915050565b600082825260208201905092915050565b600081905092915050565b6000611f1b82612035565b9150611f2683612035565b9250827fffffffffffffffffffffffffffffffffffffffffffffffffffffffffffffffff03821115611f5b57611f5a61215e565b5b828201905092915050565b6000611f7182612035565b9150611f7c83612035565b925082611f8c57611f8b61218d565b5b828204905092915050565b6000611fa282612035565b9150611fad83612035565b925082821015611fc057611fbf61215e565b5b828203905092915050565b6000611fd682612015565b9050919050565b60008115159050919050565b60007fffffffff0000000000000000000000000000000000000000000000000000000082169050919050565b600073ffffffffffffffffffffffffffffffffffffffff82169050919050565b6000819050919050565b82818337600083830152505050565b60005b8381101561206c578082015181840152602081019050612051565b8381111561207b576000848401525b50505050565b6000600282049050600182168061209957607f821691505b602082108114156120ad576120ac6121bc565b5b50919050565b6120bc8261221a565b810181811067ffffffffffffffff821117156120db576120da6121eb565b5b80604052505050565b60006120ef82612035565b91507fffffffffffffffffffffffffffffffffffffffffffffffffffffffffffffffff8214156121225761212161215e565b5b600182019050919050565b600061213882612035565b915061214383612035565b9250826121535761215261218d565b5b828206905092915050565b7f4e487b7100000000000000000000000000000000000000000000000000000000600052601160045260246000fd5b7f4e487b7100000000000000000000000000000000000000000000000000000000600052601260045260246000fd5b7f4e487b7100000000000000000000000000000000000000000000000000000000600052602260045260246000fd5b7f4e487b7100000000000000000000000000000000000000000000000000000000600052604160045260246000fd5b6000601f19601f8301169050919050565b7f4552433732313a207472616e7366657220746f206e6f6e20455243373231526560008201527f63656976657220696d706c656d656e7465720000000000000000000000000000602082015250565b7f4552433732313a207472616e736665722066726f6d20696e636f72726563742060008201527f6f776e6572000000000000000000000000000000000000000000000000000000602082015250565b7f4552433732313a207472616e7366657220746f20746865207a65726f2061646460008201527f7265737300000000000000000000000000000000000000000000000000000000602082015250565b7f4552433732313a20617070726f766520746f2063616c6c657200000000000000600082015250565b7f4552433732313a206f70657261746f7220717565727920666f72206e6f6e657860008201527f697374656e7420746f6b656e0000000000000000000000000000000000000000602082015250565b7f4552433732313a20617070726f76652063616c6c6572206973206e6f74206f7760008201527f6e6572206e6f7220617070726f76656420666f7220616c6c0000000000000000602082015250565b7f4552433732313a2062616c616e636520717565727920666f7220746865207a6560008201527f726f206164647265737300000000000000000000000000000000000000000000602082015250565b7f4552433732313a206f776e657220717565727920666f72206e6f6e657869737460008201527f656e7420746f6b656e0000000000000000000000000000000000000000000000602082015250565b7f4552433732313a20617070726f76656420717565727920666f72206e6f6e657860008201527f697374656e7420746f6b656e0000000000000000000000000000000000000000602082015250565b7f4552433732314d657461646174613a2055524920717565727920666f72206e6f60008201527f6e6578697374656e7420746f6b656e0000000000000000000000000000000000602082015250565b7f4552433732313a20617070726f76616c20746f2063757272656e74206f776e6560008201527f7200000000000000000000000000000000000000000000000000000000000000602082015250565b7f4552433732313a207472616e736665722063616c6c6572206973206e6f74206f60008201527f776e6572206e6f7220617070726f766564000000000000000000000000000000602082015250565b6125c281611fcb565b81146125cd57600080fd5b50565b6125d981611fdd565b81146125e457600080fd5b50565b6125f081611fe9565b81146125fb57600080fd5b50565b61260781612035565b811461261257600080fd5b5056fea264697066735822122090e6935e6b7bd70cde0ba7686602ea44c6d6d56ed875feeef80b07b4c7e4eb7964736f6c63430008040033a26469706673582212204f7bc4a0dcf5da682eec42fd201e7cc12e6956c46d98fb62c7075b918109fb4864736f6c63430008040033",
  "linkReferences": {},
  "deployedLinkReferences": {}
}